{
  "contractName": "BBFactoryContract",
  "abi": [
    {
      "constant": true,
      "inputs": [],
      "name": "bbo",
      "outputs": [
        {
          "name": "",
          "type": "address"
        }
      ],
      "payable": false,
      "stateMutability": "view",
      "type": "function"
    },
    {
      "constant": false,
      "inputs": [],
      "name": "renounceOwnership",
      "outputs": [],
      "payable": false,
      "stateMutability": "nonpayable",
      "type": "function"
    },
    {
      "constant": true,
      "inputs": [],
      "name": "owner",
      "outputs": [
        {
          "name": "",
          "type": "address"
        }
      ],
      "payable": false,
      "stateMutability": "view",
      "type": "function"
    },
    {
      "constant": false,
      "inputs": [
        {
          "name": "_newOwner",
          "type": "address"
        }
      ],
      "name": "transferOwnership",
      "outputs": [],
      "payable": false,
      "stateMutability": "nonpayable",
      "type": "function"
    },
    {
      "payable": true,
      "stateMutability": "payable",
      "type": "fallback"
    },
    {
      "anonymous": false,
      "inputs": [
        {
          "indexed": true,
          "name": "previousOwner",
          "type": "address"
        }
      ],
      "name": "OwnershipRenounced",
      "type": "event"
    },
    {
      "anonymous": false,
      "inputs": [
        {
          "indexed": true,
          "name": "previousOwner",
          "type": "address"
        },
        {
          "indexed": true,
          "name": "newOwner",
          "type": "address"
        }
      ],
      "name": "OwnershipTransferred",
      "type": "event"
    },
    {
      "constant": false,
      "inputs": [
        {
          "name": "amount",
          "type": "uint256"
        }
      ],
      "name": "depositBBO",
      "outputs": [],
      "payable": false,
      "stateMutability": "nonpayable",
      "type": "function"
    },
    {
      "constant": false,
      "inputs": [
        {
          "name": "value",
          "type": "uint256"
        }
      ],
      "name": "setMaxFaucet",
      "outputs": [],
      "payable": false,
      "stateMutability": "nonpayable",
      "type": "function"
    },
    {
      "constant": false,
      "inputs": [
        {
          "name": "value",
          "type": "uint256"
        }
      ],
      "name": "setTransferToken",
      "outputs": [],
      "payable": false,
      "stateMutability": "nonpayable",
      "type": "function"
    },
    {
      "constant": false,
      "inputs": [
        {
          "name": "BBOAddress",
          "type": "address"
        }
      ],
      "name": "setBBO",
      "outputs": [],
      "payable": false,
      "stateMutability": "nonpayable",
      "type": "function"
    },
    {
      "constant": false,
      "inputs": [],
      "name": "getBB0",
      "outputs": [],
      "payable": false,
      "stateMutability": "nonpayable",
      "type": "function"
    }
  ],
  "bytecode": "0x608060405260018054600160a060020a0319908116909155681b1ae4d6e2ef50000060025568056bc75e2d6310000060035560008054909116331790556105a68061004b6000396000f3006080604052600436106100985763ffffffff7c01000000000000000000000000000000000000000000000000000000006000350416631e89bf0681146100a25780633b8ff7be146100d3578063566282e6146100e8578063715018a6146101005780637937f46d1461011557806385da1192146101365780638da5cb5b1461014e578063cec0f73414610163578063f2fde38b1461017b575b6100a061019c565b005b3480156100ae57600080fd5b506100b76102d9565b60408051600160a060020a039092168252519081900360200190f35b3480156100df57600080fd5b506100a061019c565b3480156100f457600080fd5b506100a06004356102e8565b34801561010c57600080fd5b506100a06103a1565b34801561012157600080fd5b506100a0600160a060020a036004351661040d565b34801561014257600080fd5b506100a0600435610468565b34801561015a57600080fd5b506100b7610491565b34801561016f57600080fd5b506100a06004356104a0565b34801561018757600080fd5b506100a0600160a060020a03600435166104c9565b600254600154604080517f70a082310000000000000000000000000000000000000000000000000000000081523360048201529051600160a060020a03909216916370a08231916024808201926020929091908290030181600087803b15801561020557600080fd5b505af1158015610219573d6000803e3d6000fd5b505050506040513d602081101561022f57600080fd5b50511061023b57600080fd5b600154600354604080517fa9059cbb000000000000000000000000000000000000000000000000000000008152336004820152602481019290925251600160a060020a039092169163a9059cbb916044808201926020929091908290030181600087803b1580156102ab57600080fd5b505af11580156102bf573d6000803e3d6000fd5b505050506040513d60208110156102d557600080fd5b5050565b600154600160a060020a031681565b600054600160a060020a031633146102ff57600080fd5b600154604080517f23b872dd000000000000000000000000000000000000000000000000000000008152336004820152306024820152604481018490529051600160a060020a03909216916323b872dd916064808201926020929091908290030181600087803b15801561037257600080fd5b505af1158015610386573d6000803e3d6000fd5b505050506040513d602081101561039c57600080fd5b505050565b600054600160a060020a031633146103b857600080fd5b60008054604051600160a060020a03909116917ff8df31144d9c2f0f6b59d69b8b98abd5459d07f2742c4df920b25aae33c6482091a26000805473ffffffffffffffffffffffffffffffffffffffff19169055565b600054600160a060020a0316331461042457600080fd5b600160a060020a038116151561043957600080fd5b6001805473ffffffffffffffffffffffffffffffffffffffff1916600160a060020a0392909216919091179055565b600054600160a060020a0316331461047f57600080fd5b6000811161048c57600080fd5b600255565b600054600160a060020a031681565b600054600160a060020a031633146104b757600080fd5b600081116104c457600080fd5b600355565b600054600160a060020a0316156104f157600054600160a060020a031633146104f157600080fd5b6104fa816104fd565b50565b600160a060020a038116151561051257600080fd5b60008054604051600160a060020a03808516939216917f8be0079c531659141344cd1fd0a4f28419497f9722a3daafe3b4186f6b6457e091a36000805473ffffffffffffffffffffffffffffffffffffffff1916600160a060020a03929092169190911790555600a165627a7a723058202ca4cc1d4b4b039c48b0735bb5042dd01e1761b8010d68368a7cc184a15da4c00029",
  "source": "pragma solidity ^0.4.24;\n\nimport './zeppelin/ownership/Ownable.sol';\nimport './zeppelin/math/SafeMath.sol';\nimport './zeppelin/token/ERC20/ERC20.sol';\n\ncontract BBFactoryContract is Ownable{\n    \n      using SafeMath for uint256;\n      ERC20 public bbo = ERC20(0x0);\n\n      uint maxFaucetToken =  500 * 1e18; //500 token\n      uint transferToken  =  100 * 1e18; //100 token\n\n\n     function depositBBO(uint amount) onlyOwner public{\n\n         bbo.transferFrom(msg.sender, address(this), amount);\n     }\n\n\n     function setMaxFaucet(uint value) onlyOwner public {\n        require(value > 0);\n        maxFaucetToken = value;\n        \n     }\n\n    function setTransferToken(uint value) onlyOwner public {\n        require(value > 0);\n        transferToken = value;\n        \n     }\n\n    function setBBO(address BBOAddress) onlyOwner public {\n        require(BBOAddress != address(0));\n        bbo = ERC20(BBOAddress);\n        \n     }\n\n\n    function getBB0 () public {\n        \n    require(bbo.balanceOf(msg.sender) < maxFaucetToken);\n\n     bbo.transfer(msg.sender, transferToken);\n\n    }\n\n    function () external payable {\n        getBB0();\n    }\n\n  \n\n}\n",
  "sourcePath": "/Users/trantho/Code/SmartContract/BBOFactory/contracts/BBFactoryContract.sol",
  "compiler": {
    "name": "solc",
    "version": "0.4.24+commit.e67f0147.Emscripten.clang"
  },
  "schemaVersion": "2.0.1",
  "updatedAt": "2018-09-06T09:36:47.802Z"
}