{
  "contractName": "BBFactoryContract",
  "abi": [
    {
      "constant": true,
      "inputs": [],
      "name": "bbo",
      "outputs": [
        {
          "name": "",
          "type": "address"
        }
      ],
      "payable": false,
      "stateMutability": "view",
      "type": "function"
    },
    {
      "constant": false,
      "inputs": [],
      "name": "renounceOwnership",
      "outputs": [],
      "payable": false,
      "stateMutability": "nonpayable",
      "type": "function"
    },
    {
      "constant": true,
      "inputs": [],
      "name": "owner",
      "outputs": [
        {
          "name": "",
          "type": "address"
        }
      ],
      "payable": false,
      "stateMutability": "view",
      "type": "function"
    },
    {
      "constant": false,
      "inputs": [
        {
          "name": "_newOwner",
          "type": "address"
        }
      ],
      "name": "transferOwnership",
      "outputs": [],
      "payable": false,
      "stateMutability": "nonpayable",
      "type": "function"
    },
    {
      "payable": true,
      "stateMutability": "payable",
      "type": "fallback"
    },
    {
      "anonymous": false,
      "inputs": [
        {
          "indexed": true,
          "name": "previousOwner",
          "type": "address"
        }
      ],
      "name": "OwnershipRenounced",
      "type": "event"
    },
    {
      "anonymous": false,
      "inputs": [
        {
          "indexed": true,
          "name": "previousOwner",
          "type": "address"
        },
        {
          "indexed": true,
          "name": "newOwner",
          "type": "address"
        }
      ],
      "name": "OwnershipTransferred",
      "type": "event"
    },
    {
      "constant": false,
      "inputs": [
        {
          "name": "value",
          "type": "uint256"
        }
      ],
      "name": "setMaxFaucet",
      "outputs": [],
      "payable": false,
      "stateMutability": "nonpayable",
      "type": "function"
    },
    {
      "constant": false,
      "inputs": [
        {
          "name": "value",
          "type": "uint256"
        }
      ],
      "name": "setTransferToken",
      "outputs": [],
      "payable": false,
      "stateMutability": "nonpayable",
      "type": "function"
    },
    {
      "constant": false,
      "inputs": [
        {
          "name": "BBOAddress",
          "type": "address"
        }
      ],
      "name": "setBBO",
      "outputs": [],
      "payable": false,
      "stateMutability": "nonpayable",
      "type": "function"
    },
    {
      "constant": false,
      "inputs": [],
      "name": "getBB0",
      "outputs": [],
      "payable": false,
      "stateMutability": "nonpayable",
      "type": "function"
    }
  ],
  "bytecode": "0x608060405260018054600160a060020a0319908116909155681b1ae4d6e2ef500000600255678ac7230489e8000060035560008054909116331790556104ca8061004a6000396000f30060806040526004361061008d5763ffffffff7c01000000000000000000000000000000000000000000000000000000006000350416631e89bf0681146100975780633b8ff7be146100c8578063715018a6146100dd5780637937f46d146100f257806385da1192146101135780638da5cb5b1461012b578063cec0f73414610140578063f2fde38b14610158575b610095610179565b005b3480156100a357600080fd5b506100ac6102b6565b60408051600160a060020a039092168252519081900360200190f35b3480156100d457600080fd5b50610095610179565b3480156100e957600080fd5b506100956102c5565b3480156100fe57600080fd5b50610095600160a060020a0360043516610331565b34801561011f57600080fd5b5061009560043561038c565b34801561013757600080fd5b506100ac6103b5565b34801561014c57600080fd5b506100956004356103c4565b34801561016457600080fd5b50610095600160a060020a03600435166103ed565b600254600154604080517f70a082310000000000000000000000000000000000000000000000000000000081523360048201529051600160a060020a03909216916370a08231916024808201926020929091908290030181600087803b1580156101e257600080fd5b505af11580156101f6573d6000803e3d6000fd5b505050506040513d602081101561020c57600080fd5b50511061021857600080fd5b600154600354604080517fa9059cbb000000000000000000000000000000000000000000000000000000008152336004820152602481019290925251600160a060020a039092169163a9059cbb916044808201926020929091908290030181600087803b15801561028857600080fd5b505af115801561029c573d6000803e3d6000fd5b505050506040513d60208110156102b257600080fd5b5050565b600154600160a060020a031681565b600054600160a060020a031633146102dc57600080fd5b60008054604051600160a060020a03909116917ff8df31144d9c2f0f6b59d69b8b98abd5459d07f2742c4df920b25aae33c6482091a26000805473ffffffffffffffffffffffffffffffffffffffff19169055565b600054600160a060020a0316331461034857600080fd5b600160a060020a038116151561035d57600080fd5b6001805473ffffffffffffffffffffffffffffffffffffffff1916600160a060020a0392909216919091179055565b600054600160a060020a031633146103a357600080fd5b600081116103b057600080fd5b600255565b600054600160a060020a031681565b600054600160a060020a031633146103db57600080fd5b600081116103e857600080fd5b600355565b600054600160a060020a03161561041557600054600160a060020a0316331461041557600080fd5b61041e81610421565b50565b600160a060020a038116151561043657600080fd5b60008054604051600160a060020a03808516939216917f8be0079c531659141344cd1fd0a4f28419497f9722a3daafe3b4186f6b6457e091a36000805473ffffffffffffffffffffffffffffffffffffffff1916600160a060020a03929092169190911790555600a165627a7a72305820b4485efe46bab3d2dc7a35710af36d39507b209859b97949e659285661ab50c70029",
  "source": "pragma solidity ^0.4.24;\n\nimport './zeppelin/ownership/Ownable.sol';\nimport './zeppelin/math/SafeMath.sol';\nimport './zeppelin/token/ERC20/ERC20.sol';\n\ncontract BBFactoryContract is Ownable{\n    \n      using SafeMath for uint256;\n      ERC20 public bbo = ERC20(0x0);\n\n      uint maxFaucetToken =  500 * 1e18; //500 token\n      uint transferToken  =  10 * 1e18; //100 token\n\n\n     function setMaxFaucet(uint value) onlyOwner public {\n        require(value > 0);\n        maxFaucetToken = value;\n        \n     }\n\n    function setTransferToken(uint value) onlyOwner public {\n        require(value > 0);\n        transferToken = value;\n        \n     }\n\n    function setBBO(address BBOAddress) onlyOwner public {\n        require(BBOAddress != address(0));\n        bbo = ERC20(BBOAddress);\n        \n     }\n\n\n    function getBB0 () public {\n        \n    require(bbo.balanceOf(msg.sender) < maxFaucetToken);\n\n     bbo.transfer(msg.sender, transferToken);\n\n    }\n\n    function () external payable {\n        getBB0();\n    }\n\n  \n\n}\n",
  "sourcePath": "/Users/trantho/Code/SmartContract/BBFactoryContract/contracts/BBFactoryContract.sol",
  "compiler": {
    "name": "solc",
    "version": "0.4.24+commit.e67f0147.Emscripten.clang"
  },
  "schemaVersion": "2.0.1",
  "updatedAt": "2018-09-06T10:05:08.661Z"
}