{
  "contractName": "UpgradeabilityProxyFactory",
  "abi": [
    {
      "anonymous": false,
      "inputs": [
        {
          "indexed": false,
          "name": "proxy",
          "type": "address"
        }
      ],
      "name": "ProxyCreated",
      "type": "event"
    },
    {
      "constant": false,
      "inputs": [
        {
          "name": "admin",
          "type": "address"
        },
        {
          "name": "implementation",
          "type": "address"
        }
      ],
      "name": "createProxy",
      "outputs": [
        {
          "name": "",
          "type": "address"
        }
      ],
      "payable": false,
      "stateMutability": "nonpayable",
      "type": "function"
    },
    {
      "constant": false,
      "inputs": [
        {
          "name": "admin",
          "type": "address"
        },
        {
          "name": "implementation",
          "type": "address"
        },
        {
          "name": "data",
          "type": "bytes"
        }
      ],
      "name": "createProxyAndCall",
      "outputs": [
        {
          "name": "",
          "type": "address"
        }
      ],
      "payable": true,
      "stateMutability": "payable",
      "type": "function"
    }
  ],
  "bytecode": "0x608060405234801561001057600080fd5b50610b39806100206000396000f3006080604052600436106100325763ffffffff60e060020a60003504166325b567278114610037578063c6e8b4f31461007a575b600080fd5b34801561004357600080fd5b5061005e600160a060020a03600435811690602435166100dc565b60408051600160a060020a039092168252519081900360200190f35b604080516020600460443581810135601f810184900484028501840190955284845261005e948235600160a060020a03908116956024803590921695369594606494929301919081908401838280828437509497506101659650505050505050565b6000806100e883610271565b905080600160a060020a0316638f283970856040518263ffffffff1660e060020a0281526004018082600160a060020a0316600160a060020a03168152602001915050600060405180830381600087803b15801561014557600080fd5b505af1158015610159573d6000803e3d6000fd5b50929695505050505050565b60008061017184610271565b905080600160a060020a0316638f283970866040518263ffffffff1660e060020a0281526004018082600160a060020a0316600160a060020a03168152602001915050600060405180830381600087803b1580156101ce57600080fd5b505af11580156101e2573d6000803e3d6000fd5b5050505080600160a060020a0316348460405180828051906020019080838360005b8381101561021c578181015183820152602001610204565b50505050905090810190601f1680156102495780820380516001836020036101000a031916815260200191505b5091505060006040518083038185875af192505050151561026957600080fd5b949350505050565b6000808261027d6102f0565b600160a060020a03909116815260405190819003602001906000f0801580156102aa573d6000803e3d6000fd5b5060408051600160a060020a038316815290519192507efffc2da0b561cae30d9826d37709e9421c4725faebc226cbbb7ef5fc5e7349919081900360200190a192915050565b60405161080d80610301833901905600608060405234801561001057600080fd5b5060405160208061080d83398101604081815291517f6f72672e7a657070656c696e6f732e70726f78792e696d706c656d656e74617482527f696f6e00000000000000000000000000000000000000000000000000000000006020830152915190819003602301902081906000805160206107ed8339815191521461009157fe5b6100a381640100000000610104810204565b50604080517f6f72672e7a657070656c696e6f732e70726f78792e61646d696e0000000000008152905190819003601a0190206000805160206107cd833981519152146100ec57fe5b6100fe336401000000006101c2810204565b506101dc565b600061011c826401000000006105ae6101d482021704565b15156101af57604080517f08c379a000000000000000000000000000000000000000000000000000000000815260206004820152603b60248201527f43616e6e6f742073657420612070726f787920696d706c656d656e746174696f60448201527f6e20746f2061206e6f6e2d636f6e747261637420616464726573730000000000606482015290519081900360840190fd5b506000805160206107ed83398151915255565b6000805160206107cd83398151915255565b6000903b1190565b6105e2806101eb6000396000f30060806040526004361061006c5763ffffffff7c01000000000000000000000000000000000000000000000000000000006000350416633659cfe681146100765780634f1ef286146100975780635c60da1b146100b75780638f283970146100e8578063f851a44014610109575b61007461011e565b005b34801561008257600080fd5b50610074600160a060020a0360043516610138565b61007460048035600160a060020a03169060248035908101910135610172565b3480156100c357600080fd5b506100cc6101ea565b60408051600160a060020a039092168252519081900360200190f35b3480156100f457600080fd5b50610074600160a060020a0360043516610227565b34801561011557600080fd5b506100cc610339565b610126610364565b610136610131610411565b610436565b565b61014061045a565b600160a060020a031633600160a060020a03161415610167576101628161047f565b61016f565b61016f61011e565b50565b61017a61045a565b600160a060020a031633600160a060020a031614156101dd5761019c8361047f565b30600160a060020a03163483836040518083838082843782019150509250505060006040518083038185875af19250505015156101d857600080fd5b6101e5565b6101e561011e565b505050565b60006101f461045a565b600160a060020a031633600160a060020a0316141561021c57610215610411565b9050610224565b61022461011e565b90565b61022f61045a565b600160a060020a031633600160a060020a0316141561016757600160a060020a03811615156102e557604080517f08c379a000000000000000000000000000000000000000000000000000000000815260206004820152603660248201527f43616e6e6f74206368616e6765207468652061646d696e206f6620612070726f60448201527f787920746f20746865207a65726f206164647265737300000000000000000000606482015290519081900360840190fd5b7f7e644d79422f17c01e4894b5f4f588d331ebfa28653d42ae832dc59e38c9798f61030e61045a565b60408051600160a060020a03928316815291841660208301528051918290030190a1610162816104c7565b600061034361045a565b600160a060020a031633600160a060020a0316141561021c5761021561045a565b61036c61045a565b600160a060020a031633141561040957604080517f08c379a000000000000000000000000000000000000000000000000000000000815260206004820152603260248201527f43616e6e6f742063616c6c2066616c6c6261636b2066756e6374696f6e20667260448201527f6f6d207468652070726f78792061646d696e0000000000000000000000000000606482015290519081900360840190fd5b610136610136565b7f7050c9e0f4ca769c69bd3a8ef740bc37934f8e2c036e5a723fd8ee048ed3f8c35490565b3660008037600080366000845af43d6000803e808015610455573d6000f35b3d6000fd5b7f10d6a54a4754c8869d6886b5f5d7fbfa5b4522237ea5c60d11bc4e7a1ff9390b5490565b610488816104eb565b60408051600160a060020a038316815290517fbc7cd75a20ee27fd9adebab32041f755214dbc6bffa90cc0225b39da2e5c2d3b9181900360200190a150565b7f10d6a54a4754c8869d6886b5f5d7fbfa5b4522237ea5c60d11bc4e7a1ff9390b55565b60006104f6826105ae565b151561058957604080517f08c379a000000000000000000000000000000000000000000000000000000000815260206004820152603b60248201527f43616e6e6f742073657420612070726f787920696d706c656d656e746174696f60448201527f6e20746f2061206e6f6e2d636f6e747261637420616464726573730000000000606482015290519081900360840190fd5b507f7050c9e0f4ca769c69bd3a8ef740bc37934f8e2c036e5a723fd8ee048ed3f8c355565b6000903b11905600a165627a7a723058204a4f856a76d4dd048ffa5b9c82528496c9762bb78c1af0141c294dec43805082002910d6a54a4754c8869d6886b5f5d7fbfa5b4522237ea5c60d11bc4e7a1ff9390b7050c9e0f4ca769c69bd3a8ef740bc37934f8e2c036e5a723fd8ee048ed3f8c3a165627a7a7230582036f81e94157fb27a23492fe04c2aa6bbc256ce3d869f177f20e1e46b04d6ebde0029",
  "source": "pragma solidity ^0.4.24;\n\nimport './AdminUpgradeabilityProxy.sol';\n\n/**\n * @title UpgradeabilityProxyFactory\n * @dev Factory to create upgradeability proxies.\n */\ncontract UpgradeabilityProxyFactory {\n  /**\n   * @dev Emitted when a new proxy is created.\n   * @param proxy Address of the created proxy.\n   */\n  event ProxyCreated(address proxy);\n\n  /**\n   * @dev Creates an upgradeability proxy with an initial implementation.\n   * @param admin Address of the proxy admin.\n   * @param implementation Address of the initial implementation.\n   * @return Address of the new proxy.\n   */\n  function createProxy(address admin, address implementation) public returns (AdminUpgradeabilityProxy) {\n    AdminUpgradeabilityProxy proxy = _createProxy(implementation);\n    proxy.changeAdmin(admin);\n    return proxy;\n  }\n\n  /**\n   * @dev Creates an upgradeability proxy with an initial implementation and calls it.\n   * This is useful to initialize the proxied contract.\n   * @param admin Address of the proxy admin.\n   * @param implementation Address of the initial implementation.\n   * @param data Data to send as msg.data in the low level call.\n   * It should include the signature and the parameters of the function to be\n   * called, as described in\n   * https://solidity.readthedocs.io/en/develop/abi-spec.html#function-selector-and-argument-encoding.\n   * @return Address of the new proxy.\n   */\n  function createProxyAndCall(address admin, address implementation, bytes data) public payable returns (AdminUpgradeabilityProxy) {\n    AdminUpgradeabilityProxy proxy = _createProxy(implementation);\n    proxy.changeAdmin(admin);\n    require(address(proxy).call.value(msg.value)(data));\n    return proxy;\n  }\n\n  /**\n   * @dev Internal function to create an upgradeable proxy.\n   * @param implementation Address of the initial implementation.\n   * @return Address of the new proxy.\n   */\n  function _createProxy(address implementation) internal returns (AdminUpgradeabilityProxy) {\n    AdminUpgradeabilityProxy proxy = new AdminUpgradeabilityProxy(implementation);\n    emit ProxyCreated(proxy);\n    return proxy;\n  }\n}\n",
  "sourcePath": "/Users/trantho/Code/SmartContract/BBFactoryContract/contracts/zos-lib/upgradeability/UpgradeabilityProxyFactory.sol",
  "compiler": {
    "name": "solc",
    "version": "0.4.24+commit.e67f0147.Emscripten.clang"
  },
  "schemaVersion": "2.0.1",
  "updatedAt": "2018-09-10T01:59:19.206Z"
}